:1000000004EF00F0FFFFFFFF5BEC00F0926A946AE0
:10001000956A936AFF0E896EFF0E8A6EFF0E8C6ED4
:10002000FF0E8B6EF16A0F0EC16E1A0E0B6EFF0E75
:100030000A6E0B2E01D003D00A2EFED7FAD7E70E98
:100040000A6E0A2EFED70000801E170E1524E96ED8
:10005000000E1620EA6EEECF00F0001C816E000E3E
:10006000161802E1090E151802E1156A166A821EB9
:10007000831E020E0C6EFF0E0B6EFF0E0A6E0C2E10
:1000800001D007D00B2E01D003D00A2EFED7FAD70D
:10009000F6D7060E0B6EFF0E0A6E0B2E01D003D0A4
:1000A0000A2EFED7FAD70A0E0A6E0A2EFED7154A76
:1000B000162ABBD7FFD7000E156E000E166E3F0E28
:1000C000176E060E186E5B0E196E4F0E1A6E660EC8
:1000D0001B6E6D0E1C6E7D0E1D6E070E1E6E7F0E4E
:1000E0001F6E6F0E206E1200FFFFFFFFFFFFFFFF6E
:020000040030CA
:0E000000FFFFFFFEFF7FFBFFFFFFFFFFFFFF85
:00000001FF
